:100000000C9425010C9446010C9446010C94460175
:100010000C9446010C9446010C9446010C94460144
:100020000C9446010C9446010C9446010C94460134
:100030000C9446010C947E050C9446010C944601E8
:100040000C9446010C9446010C9446010C94460114
:100050000C9446010C9446010C9446010C94DE0568
:100060000C9446010C9446010C9446010C944601F4
:100070000C9446010C9446010C9446010C944601E4
:100080000C9446010C9446010C9446010C944601D4
:100090000C9446010C9446010C9446010C944601C4
:1000A0000C9446010C9446010C9446010C944601B4
:1000B0000C9446010C9446010C9446010C944601A4
:1000C0000C9446010C9446010C9446010C94460194
:1000D0000C9446010C9446010C9446010C94460184
:1000E0000C9446010C947B010C94AB010C948F0191
:1000F0000C9466010C9499010C9478010C948B017A
:100100000C9485010C9470010C9474010C94810181
:100110000C94A1010C94A6010C94A7010C949301DA
:100120000C949D010C946C01000021002400270018
:100130002A002D00300033000101000004010701F6
:100140000A01000020002300260029002C002F00B7
:1001500032000001000003010601090100000A0B42
:1001600002090C0D0E080703040100000000000046
:10017000000000000000000000000000000000007F
:10018000000000000000000012111000000000003C
:10019000000000000000000000000000000000005F
:1001A000000001021020200808102040102040808C
:1001B000020102010804020101020408102040802B
:1001C00080402010080402018004020180402010B9
:1001D0000804020108040201010204081020408002
:1001E00001020408102040800000220025002800A1
:1001F0002B002E003100340002010000050108012F
:100200000B0105050505070508080808020202029A
:100210000A0A0808040404040101010101010101A2
:100220000303030303030303040707070C0C0C0C6D
:100230000C0C0C0C02020202060606060606060656
:100240000B0B0B0B0B0B0B0B020011241FBECFEF84
:10025000D1E2DEBFCDBF00E00CBF12E0A0E0B2E013
:10026000E2EBFFE000E00BBF02C007900D92A2306E
:10027000B107D9F722E0A2E0B2E001C01D92A3339A
:10028000B207E1F70E9428060C94D7070C940000EF
:100290008150823108F05AC0E82FF0E08827EC5AEC
:1002A000FE4F8F4F0C94CF077401780166016C01EB
:1002B0007001A6017B01810185018B018F019301F2
:1002C00099019D01A601A101A701AB0180918000C8
:1002D0008F77809380000895809180008F7DF9CF83
:1002E00080918000877FF5CF84B58F7784BD089596
:1002F00084B58F7DFBCF8091B0008F778093B00065
:1003000008958091B0008F7DF9CF809190008F7714
:10031000809390000895809190008F7DF9CF809117
:100320009000877FF5CF8091A0008F778093A00009
:1003300008958091A0008F7DF9CF8091A000877FE4
:10034000F5CF809120018F778093200108958091CF
:1003500020018F7DF9CF80912001877FF5CFCF934A
:10036000DF93282F30E0F901E45AFE4F8491F90120
:10037000EE55FE4FD491F901EE5FFD4FC491CC23B1
:10038000A1F081110E944801EC2FF0E0EE0FFF1F59
:10039000EE5BFE4FA591B491EC91ED2381E090E0EE
:1003A00009F480E0DF91CF91089580E090E0FACFEA
:1003B0001F93CF93DF93282F30E0F901E45AFE4FCB
:1003C0008491F901EE55FE4FD491F901EE5FFD4F96
:1003D000C491CC23A9F0162F81110E944801EC2F63
:1003E000F0E0EE0FFF1FE851FE4FA591B4918FB7DB
:1003F000F894EC91111108C0D095DE23DC938FBFE7
:10040000DF91CF911F910895DE2BF8CF90910002DC
:1004100089130DC0E8E4F2E0E4919FEF90930002AD
:10042000E230E1F038F4EE2381F0E13089F060E071
:100430000C94D801E43049F110F1E530C1F7909106
:1004400073009D7F90937300F2CF10926E00EFCFF8
:1004500090916F009D7F90936F00E9CF9091700015
:100460009D7F9093700091E09093B0009091B100C7
:10047000987F94609093B1001092B300D8CF909180
:1004800071009D7F90937100D2CF909172009D7FFB
:1004900090937200CCCFCF93DF9390E0FC01EE55A8
:1004A000FE4F24918E5F9D4FFC0184918823D1F0F3
:1004B00090E0880F991FFC01E85DFE4FA591B49173
:1004C000FC01E851FE4FC591D49161110EC09FB758
:1004D000F8948C91E22FE0958E238C932881E2236F
:1004E000E8839FBFDF91CF9108958FB7F894EC9187
:1004F000E22BEC938FBFF6CFCF93809100028E3129
:1005000021F08F3F61F1CF910895E8E4F2E0C491CA
:10051000C7FDF9CF61E08EE10E944B02CC2309F4C4
:10052000F1C0C23009F006C18091B100887F8360BC
:100530008093B10089EF8093B30088EE93E0A0E050
:10054000B0E08093270290932802A0932902B093F1
:100550002A0280917000826080937000D4CF8EE177
:1005600080930002E8E4F2E0C4918C2FCF3F59F26F
:10057000C23009F468C060F4CC2379F1C13009F4C9
:1005800044C087FDC0CF61E08EE10E944B02C9CF1D
:10059000C43009F499C008F478C0C53091F71092BE
:1005A0002001109221018091210188608093210116
:1005B00080912101816080932101E0E2F2E0E491E9
:1005C000F0E0EE0FFF1FE851FE4F85919491E0ECB3
:1005D000F1E0E491E09313029DCF14BC15BC84B507
:1005E000826084BD85B5816085BDE0E2F2E0E49182
:1005F000F0E0EE0FFF1FE851FE4F85919491E0EC83
:10060000F1E0E491E0931A0285CF109280001092FD
:1006100081008091810088608093810080918100B9
:10062000816080938100E0E2F2E0E491F0E0EE0F7F
:10063000FF1FE851FE4F85919491E0ECF1E0E491C9
:10064000E093190267CF1092B0001092B100809130
:10065000B00082608093B0008091B100816080938F
:10066000B100E0E2F2E0E491F0E0EE0FFF1FE851AC
:10067000FE4F859194919093180280931702E0ECBD
:10068000F1E0E491E093160245CF109290001092B1
:1006900091008091910088608093910080919100F9
:1006A000816080939100E0E2F2E0E491F0E0EE0FEF
:1006B000FF1FE851FE4F85919491E0ECF1E0E49149
:1006C000E0931502C3E026CF1092A0001092A10083
:1006D0008091A10088608093A1008091A100816039
:1006E0008093A100E0E2F2E0E491F0E0EE0FFF1F62
:1006F000E851FE4F85919491E0ECF1E0E491E093B4
:10070000140208CF85B5887F836085BD8CE787BDDF
:1007100088EE93E0A0E0B0E080932F029093300247
:10072000A0933102B093320280916E008260809378
:100730006E00E9CEC130F1F480918100887F816044
:10074000809381008FE39FE19093890080938800DC
:1007500088EE93E0A0E0B0E080932B0290932C020F
:10076000A0932D02B0932E0280916F00826080933F
:100770006F00C9CEC330F1F480919100887F816011
:10078000809391008FE39FE190939900809398006C
:1007900088EE93E0A0E0B0E08093230290932402DF
:1007A000A0932502B093260280917100826080930D
:1007B0007100A9CEC430F1F48091A100887F8160DE
:1007C0008093A1008FE39FE19093A9008093A800FC
:1007D00088EE93E0A0E0B0E080931F0290932002A7
:1007E000A0932102B09322028091720082608093D4
:1007F000720089CEC530F1F480912101887F81603B
:10080000809321018FE39FE1909329018093280138
:1008100088EE93E0A0E0B0E080931B0290931C026E
:10082000A0931D02B0931E0280917300826080939A
:10083000730069CEC23091F034F4CC2369F0C1303A
:1008400009F061CE7FCFC43009F4BCCF0CF49ACF4D
:10085000C53009F058CED6CF8FE359CF8FE36BCE9A
:100860003FB7F8948091070290910802A091090285
:10087000B0910A0226B5A89B05C02F3F19F001963A
:10088000A11DB11D3FBFBA2FA92F982F8827BC01EA
:10089000CD01620F711D811D911D42E0660F771F12
:1008A000881F991F4A95D1F708958F929F92AF9212
:1008B000BF92CF92DF92EF92FF926B017C010E9478
:1008C00030044B015C01C114D104E104F104B9F01E
:1008D0000E943004681979098A099B09683E7340AF
:1008E0008105910580F321E0C21AD108E108F108E1
:1008F00088EE880E83E0981EA11CB11CE4CFFF9007
:10090000EF90DF90CF90BF90AF909F908F90089521
:100910002FB7F89460910302709104028091050250
:10092000909106022FBF0895CF93DF9360E0019767
:1009300009F073C084E00E94D80161E083E00E9466
:10094000D80160ED77E080E090E00E94550460E01F
:1009500083E00E94D80161E082E00E94D80168EE45
:1009600073E080E090E00E94550460E088E00E941F
:10097000D80161E089E00E94D80168E873E180E075
:1009800090E00E945504CAE0D0E061E089E00E9456
:10099000D8010E947C026AEF70E080E090E00E9443
:1009A000550460E089E00E94D8018EE10E940602B1
:1009B0006AEF70E080E090E00E945504219729F7EB
:1009C00061E088E00E94D80164EF71E080E090E08F
:1009D0000E94550461E083E00E94D80160E082E05B
:1009E0000E94D80168EE73E080E090E00E94550418
:1009F00061E084E00E94D80160E083E00E94D801B9
:100A00000E94880460930F02709310028093110279
:100A100090931202DF91CF91089587E00E94D80150
:100A200061E086E00E94D80160ED77E080E090E030
:100A30000E94550460E086E00E94D80161E085E0F4
:100A40000E94D80168EE73E080E090E00E945504B7
:100A500060E08AE00E94D80161E08BE00E94D8014A
:100A600068E873E180E090E00E945504CAE0D0E0BD
:100A700061E08BE00E94D8010E947C026AEF70E086
:100A800080E090E00E94550460E08BE00E94D80175
:100A90008EE10E9406026AEF70E080E090E00E9422
:100AA0005504219729F761E08AE00E94D80164EF9C
:100AB00071E080E090E00E94550461E086E00E94D1
:100AC000D80160E085E00E94D80168EE73E080E024
:100AD00090E00E94550461E087E00E94D80160E048
:100AE00086E00E94D8010E94880460930B027093F4
:100AF0000C0280930D0290930E028CCF1F920F92E6
:100B00000FB60F9211240BB60F922F933F934F9372
:100B10005F936F937F938F939F93AF93BF93EF9365
:100B2000FF938091270290912802A0912902B09111
:100B30002A02892B8A2B8B2BE1F190911602E091EE
:100B40001702F09118028081892780838091270203
:100B500090912802A0912902B0912A021816190634
:100B60001A061B069CF48091270290912802A091FE
:100B70002902B0912A020197A109B10980932702A5
:100B800090932802A0932902B0932A02FF91EF913B
:100B9000BF91AF919F918F917F916F915F914F9195
:100BA0003F912F910F900BBE0F900FBE0F901F9093
:100BB0001895809100020E940602E8CF1F920F92C2
:100BC0000FB60F9211242F933F938F939F93AF9360
:100BD000BF938091030290910402A0910502B0910D
:100BE00006023091020223E0230F2D3758F50196BB
:100BF000A11DB11D20930202809303029093040271
:100C0000A0930502B093060280910702909108021A
:100C1000A0910902B0910A020196A11DB11D809315
:100C2000070290930802A0930902B0930A02BF91B1
:100C3000AF919F918F913F912F910F900FBE0F9089
:100C40001F90189526E8230F0296A11DB11DD2CF43
:100C5000789484B5826084BD84B5816084BD85B597
:100C6000826085BD85B5816085BD80916E008160A3
:100C700080936E0010928100809181008260809349
:100C8000810080918100816080938100809180004B
:100C90008160809380008091B10084608093B10076
:100CA0008091B00081608093B0008091910082605B
:100CB0008093910080919100816080939100809158
:100CC00090008160809390008091A1008260809369
:100CD000A1008091A10081608093A1008091A0007B
:100CE00081608093A0008091210182608093210126
:100CF0008091210181608093210180912001816098
:100D00008093200180917A00846080937A008091A2
:100D10007A00826080937A0080917A00816080936B
:100D20007A0080917A00806880937A001092C100E6
:100D300061E082E00E944B0261E083E00E944B028E
:100D400061E084E00E944B0261E088E00E944B0277
:100D500061E089E00E944B0261E085E00E944B0265
:100D600061E086E00E944B0261E087E00E944B0256
:100D700061E08AE00E944B0261E08BE00E944B023E
:100D800060E08CE00E944B0260E087E10E944B0231
:100D900061E08EE10E944B0261E084E00E94D80194
:100DA00061E088E00E94D80161E087E00E94D801FC
:100DB00061E08AE00E94D80100E010E08CE00E942F
:100DC000AF015C0187E10E94AF017C0186E10E94D6
:100DD000AF016C0188E10E94AF01EC01A114B104E4
:100DE00019F4C114D104C1F10E94880440900F028B
:100DF00050901002609011027090120264197509EF
:100E000086099709693873418105910528F160EDDC
:100E100077E080E090E00E9455049AE0892E912CC2
:100E200061E084E00E94D8016AEF70E080E090E029
:100E30000E94550460E084E00E94D8016AEF70E0EF
:100E400080E090E00E94550481E0881A910841F703
:100E500081E090E00E949404E114F10411F42097E1
:100E6000C1F10E94880440900B0250900C026090E7
:100E70000D0270900E026419750986099709693888
:100E800073418105910528F160ED77E080E090E005
:100E90000E9455048AE0882E912C61E087E00E9430
:100EA000D8016AEF70E080E090E00E94550460E0B5
:100EB00087E00E94D8016AEF70E080E090E00E9435
:100EC000550481E0881A910841F782E090E00E9481
:100ED0009404AB2819F4CD2809F45AC00E94880460
:100EE00080900F0290901002A0901102B090120218
:100EF000681979098A099B09693873418105910547
:100F000008F446C0EF2819F4CD2B09F441C00E9423
:100F10008804C0900B02D0900C02E0900D02F0907B
:100F20000E026C197D098E099F096938734181058C
:100F3000910570F160ED77E080E090E00E9455044B
:100F4000CAE0D0E061E084E00E94D80161E087E07F
:100F50000E94D8016AEF70E080E090E00E945504A2
:100F600060E084E00E94D80160E087E00E94D80140
:100F70006AEF70E080E090E00E945504219711F73D
:100F800081E090E00E94940482E090E00E9494044A
:100F90000115110509F412CF0E9400000FCFEE0FCA
:100FA000FF1F881F8BBF0790F691E02D1994F894CE
:020FB000FFCF71
:020FB200FF003E
:00000001FF
